:020000040800F2
:1000000078060020CD010008D5010008D7010008BE
:10001000D9010008DB010008DD0100080000000034
:10002000000000000000000000000000DF010008E8
:10003000E101000800000000E3010008E5010008FC
:10004000E7010008E7010008E7010008E7010008F0
:10005000E7010008E7010008E7010008E7010008E0
:10006000E7010008E7010008E7010008E7010008D0
:10007000E7010008E7010008E7010008E7010008C0
:10008000E7010008E7010008E7010008E7010008B0
:10009000E7010008E7010008E7010008E7010008A0
:1000A000E7010008E7010008E7010008E701000890
:1000B000E7010008E7010008E7010008E701000880
:1000C000E7010008E7010008E7010008E701000870
:1000D000E7010008E7010008E7010008A10D00089A
:1000E000E7010008E7010008E7010008E701000850
:1000F000E7010008E7010008E7010008E701000840
:10010000E7010008E7010008E7010008E70100082F
:10011000E7010008E7010008E7010008E70100081F
:10012000E7010008E7010008E7010008E70100080F
:1001300000F002F800F03AF80AA090E8000C8244BF
:100140008344AAF10107DA4501D100F02FF8AFF29C
:10015000090EBAE80F0013F0010F18BFFB1A43F0A5
:10016000010318473814000058140000103A24BF47
:1001700078C878C1FAD8520724BF30C830C144BF0C
:1001800004680C607047000000230024002500264E
:10019000103A28BF78C1FBD8520728BF30C148BFEA
:1001A0000B6070471FB51FBD10B510BD00F031F8D2
:1001B0001146FFF7F7FF00F013FF00F04FF803B40C
:1001C000FFF7F2FF03BC00F057F800000948804732
:1001D00009480047FEE7FEE7FEE7FEE7FEE7FEE729
:1001E000FEE7FEE7FEE7FEE704480549054A064B41
:1001F00070470000990C00083101000878000020C9
:1002000078060020780200207802002070477047AE
:100210007047754600F02CF8AE4605006946534617
:1002200020F00700854618B020B5FFF7DDFFBDE8D8
:1002300020404FF000064FF000074FF000084FF04D
:10024000000B21F00701AC46ACE8C009ACE8C009DE
:10025000ACE8C009ACE8C0098D46704710B504464B
:10026000AFF300802046BDE81040FFF7A8BF0000B4
:10027000004870471800002001491820ABBEFEE777
:1002800026000200704721B1826842F001028260BC
:1002900003E0826822F0010282607047014600207C
:1002A0008A6802F004020AB1012000E000207047D1
:1002B0000146C86C80B270470246002013680B40AC
:1002C0000BB1012000E000207047014600208A6841
:1002D00002F008020AB1012000E00020704700008F
:1002E00030B502460020002350680F4C20400D79A5
:1002F0000C6844EA05242043506090680B4C204071
:10030000D1E902542C434D7944EA450420439060DE
:10031000D06A20F470000C7C641EE4B2234340EAEF
:100320000350D06230BD0000FFFEF0FFFDF7F1FF8B
:10033000F0B504460D4600200021092D11DDE068CE
:10034000A5F10A0606EB4607072606FA07F18843D9
:10035000A5F10A0606EB460603FA06F10843E0603B
:100360000CE0206905EB4507072606FA07F18843EC
:1003700005EB450603FA06F108432061072A0FDA68
:10038000606B561E06EB86071F2606FA07F18843A8
:10039000561E06EB860605FA06F10843606322E066
:1003A0000D2A0FDA206BD61F06EB86071F2606FAEA
:1003B00007F18843D61F06EB860605FA06F10843C7
:1003C000206310E0E06AA2F10D0606EB86071F2607
:1003D00006FA07F18843A2F10D0606EB860605FA38
:1003E00006F10843E062F0BD816841F008018160D8
:1003F000704721B1826842F4A002826003E0826803
:1004000022F4A00282607047816841F0040181609B
:100410007047002106E0002200E0521CB2F5FA5FAE
:10042000FBD3491C8142F6D370472DE9F0410246C7
:1004300000250026002000230024002791F803C097
:100440000CF00F0591F803C00CF0100CBCF1000F7C
:1004500003D091F802C04CEA050591F800C0BCF148
:10046000000F31D0146800202BE04FF0010C0CFA83
:1004700000F3B1F800C00CEA03069E4220D18300CD
:100480004FF00F0C0CFA03F7BC4305FA03FC4CEADF
:10049000040491F803C0BCF1280F06D14FF0010C01
:1004A0000CFA00FCC2F814C00AE091F803C0BCF1D9
:1004B000480F05D14FF0010C0CFA00FCC2F810C037
:1004C000401C0828D1D31460B1F800C0BCF1FF0F64
:1004D00034DD546800202EE000F1080C4FF00108D4
:1004E00008FA0CF3B1F800C00CEA03069E4221D1D1
:1004F00083004FF00F0C0CFA03F7BC4305FA03FC22
:100500004CEA040491F803C0BCF1280F05D100F1B6
:10051000080C08FA0CF8C2F8148091F803C0BCF17A
:10052000480F07D100F1080C4FF0010808FA0CF849
:10053000C2F81080401C0828CED35460BDE8F0817A
:10054000F0B50A46002300240021002500F00046F3
:10055000B6F1004F02D11D4EF16901E01B4E7168EA
:10056000C0F3034583B200F44016B6F5401F08D12E
:1005700021F07061154E766826F07066134F7E602C
:1005800012E000F48016B6F5801F06D1032606FAA5
:1005900005F4A14341F0706106E0460D360103FA0F
:1005A00006F6B14341F0706122B1460D360103FAFF
:1005B00006F6314300F00046B6F1004F02D1034E7B
:1005C000F16101E0014E7160F0BD000000000140EA
:1005D000416170470161704710B505230122002178
:1005E0000848FFF7A5FE01210648FFF702FF00BFFC
:1005F00002210448FFF760FE0028F9D00148FFF708
:1006000057FE10BD0024014000B587B001214FF412
:10061000037000F053FA0120ADF8180000208DF8A7
:100620001B0006A92048FFF700FF0320ADF81800C3
:1006300010208DF81B0003208DF81A0006A91B4816
:10064000FFF7F3FE01211948FFF7C2FF0221174807
:10065000FFF7C0FF002001908DF808008DF8090019
:100660004FF4602003900020049001208DF81400C6
:1006700001A90F48FFF734FE01210D48FFF703FEE3
:100680000B48FFF7B1FE00BF0948FFF71EFE002828
:10069000FAD10748FFF7B8FE00BF0548FFF7FEFD97
:1006A0000028FAD107B000BD00080140000C01404D
:1006B000002401402DE9F04104460D4616461F4630
:1006C0002A2000F071F9002000F058F9A11CC8B2EE
:1006D00000F054F9002000F051F9B11CC8B200F04C
:1006E0004DF92B2000F060F9002000F047F9691C5B
:1006F000C8B200F043F9002000F040F9791CC8B2FC
:1007000000F03CF92C2000F04FF9BDE8F08170B505
:1007100006467F231A4600210846FFF7CBFF002438
:100720000AE0002504E0304600F00EF9681C85B2AE
:10073000802DF8DB601C84B2802CF2DB70BD01B52B
:1007400000BF0098411E00910028FAD108BD0000AA
:1007500008B50121092000F0B1F901212448FFF773
:10076000EFFE4FF47C70ADF8000010208DF8030010
:1007700003208DF8020069461E48FFF756FE4FF42D
:1007800000711C48FFF726FF40211A48FFF720FFA1
:100790001948FFF7D4FF40211648FFF71BFF164802
:1007A000FFF7CDFF112000F0FFF81448FFF7C7FF57
:1007B000B12000F0F9F8052000F0E0F83C2000F04E
:1007C000DDF83C2000F0DAF8362000F0EDF80820E3
:1007D00000F0D4F83A2000F0E7F8052000F0CEF859
:1007E000202000F0E1F8292000F0DEF808BD00002C
:1007F00000023000000C014080841E00804F120077
:100800002DE9F05F06460F4614469846DDF828B0FD
:10081000A4F12000C4B207F10F0083B2F01D82B230
:1008200039463046FFF746FF00251EE0114800EB31
:10083000041010F805904FF0000A11E009F0800054
:1008400018B1404600F080F802E0584600F07CF80D
:100850004FEA49604FEA10690AF1010000F0FF0A0F
:10086000BAF1080FEADB681C85B2102DDEDBBDE8AB
:10087000F09F0000EA1100082DE9F84F06468A466D
:1008800090461D46DDF82C904FF0000B002431E01F
:10089000281B401EC1B20A2000F09CFCB8FBF0F0FF
:1008A0000A21B0FBF1F201FB1207BBF1000F11D1DD
:1008B000681EA0420EDD5FB9082101FB046188B209
:1008C000CDF80090202251460A9BFFF799FF0FE0D8
:1008D0004FF0010B07F13001CAB2082101FB04619E
:1008E00088B2CDF8009051460A9BFFF789FF00BF00
:1008F000601CC4B2AC42CBDBBDE8F88F2DE9F843F5
:1009000005460E4614469846089F18E0782D03DDEC
:10091000002506F1100086B2702E05DD0020054688
:1009200006463846FFF7F3FE0097227843463146E5
:100930002846FFF765FF05F1080085B2641C2078A2
:100940000028E3D1BDE8F88310B504464FF4807168
:100950000948FFF73DFE80210748FFF73BFE2012C4
:1009600000F038F8E0B200F035F84FF4807102483A
:10097000FFF730FE10BD0000000C014010B504462A
:100980004FF480710748FFF723FE80210548FFF7E9
:1009900021FE204600F01EF84FF480710148FFF759
:1009A00019FE10BD000C014010B504464FF48071D3
:1009B0000748FFF70DFE80210548FFF709FE204696
:1009C00000F008F84FF480710148FFF703FE10BDF6
:1009D000000C014070B50446002517E010210D48B9
:1009E000FFF7F6FD04F0800020B120210948FFF751
:1009F000F1FD03E020210748FFF7EAFD102105483B
:100A0000FFF7E8FD6006040E681CC5B2082DE5DBA3
:100A100070BD0000000C014070B5002100230F22C2
:100A2000C47804B3154C246804F4E064C4F5E064AD
:100A3000210AC1F10403CA40447804FA03F184781E
:100A40001440214309010E4C0678A155047804F0A6
:100A50001F050124AC4005786D11AD0005F1E025BE
:100A6000C5F8004109E0047804F01F050124AC40FA
:100A7000044D0678761145F8264070BD0CED00E077
:100A800000E400E080E100E002490143024A116015
:100A9000704700000000FA050CED00E029B1064A9D
:100AA000D2690243044BDA6104E0034AD26982430B
:100AB000014BDA61704700000010024029B1064A7C
:100AC00092690243044B9A6104E0034A92698243AB
:100AD000014B9A61704700000010024030B50021C0
:100AE0000022002400232D4D6D6805F00C0121B17A
:100AF000042905D0082923D105E0294D056022E00D
:100B0000274D05601FE0254D6D6805F47012234DDB
:100B10006D6805F48034022505EB92421CB9214D25
:100B2000554305600BE01D4D6D6805F400351DB1A2
:100B30001C4D5543056002E0194D5543056002E028
:100B4000174D056000BF00BF144D6D6805F0F00142
:100B50000909154D6B5C0568DD4045600F4D6D68FA
:100B600005F4E061090A104D6B5C4568DD40856065
:100B70000A4D6D6805F46051C90A0B4D6B5C456800
:100B8000DD40C560054D6D6805F44041890B074D9A
:100B90006B5CC568B5FBF3F5056130BD0010024024
:100BA00000127A0000093D0002000020120000201F
:100BB00010B500F001F810BD0CB5002001900090B8
:100BC0003348006840F480303149086000BF304845
:100BD000006800F4003000900198401C01900098DB
:100BE00018B90198B0F5A06FF1D12948006800F458
:100BF000003010B10120009001E00020009000982A
:100C0000012843D12348006840F0100021490860C2
:100C10000846006820F0030008600846006840F0BD
:100C2000020008601A484068194948600846406850
:100C300048600846406840F4806048600846406864
:100C400020F47C1048600846406840F4E810486092
:100C50000846006840F08070086000BF0C480068DB
:100C600000F000700028F9D00948406820F0030027
:100C7000074948600846406840F00200486000BFED
:100C80000348406800F00C000828F9D10CBD0000B2
:100C9000001002400020024010B51348006840F0E8
:100CA00001001149086008464068104908400E4993
:100CB0004860084600680E4908400B49086008462D
:100CC000006820F4802008600846406820F4FE0098
:100CD00048604FF41F008860FFF76AFF4FF0006024
:100CE0000449086010BD0000001002400000FFF839
:100CF000FFFFF6FE08ED00E000B587B00121880493
:100D0000FFF7CCFE01210820FFF7D8FE4FF48060EA
:100D1000ADF8180003208DF81A0018208DF81B007C
:100D200006A91D48FFF781FB4FF40060ADF81800DD
:100D300004208DF81B0006A91748FFF776FB4FF437
:100D4000165002900020ADF80C00ADF80E00ADF882
:100D50001000ADF814000C20ADF8120002A90F48E5
:100D600000F0CCF827208DF8040001208DF8050054
:100D70008DF806008DF8070001A8FFF74DFE01224F
:100D800040F22551054800F094F80121034800F095
:100D90005AF807B000BD0000000C014000480040B8
:100DA0001CB540F225511D4800F059F8A0B31B486E
:100DB00000F010F9C4B24FF6FF704FF478432246AA
:100DC0005A2100903C20FFF71BFD4FF6FF701F21BA
:100DD00003232246CDE900105A215020FFF74CFD95
:100DE000412C03D100200E4908700FE0312C05D1B1
:100DF00001200B4908700B49087007E0302C05D121
:100E000001200749087000200649087040F225516A
:100E1000024800F009F800BF1CBD00000048004077
:100E2000000000200100002010B50022002340F641
:100E30006A14A14200D100BF0A1201249440A3B257
:100E4000DC43048010BD21B1828942F400528281CA
:100E500004E082894DF6FF731A408281704770B5B5
:100E60000246002400230025002040F66A16B14205
:100E700000D100BFC1F3421501F01F03012606FA9D
:100E800003F3012D02D19689334006E0022D02D1F1
:100E9000168A334001E0968A33400C12012606FA86
:100EA00004F41688344013B10CB1012000E0002096
:100EB00070BDF0B50346002400260025002040F652
:100EC0006A17B94200D100BF1846C1F3421401F0BD
:100ED0001F06012707FA06F5012C01D10C3004E0AA
:100EE000022C01D1103000E014301AB107682F43F2
:100EF000076002E00768AF430760F0BD2DE9F047E7
:100F000086B005460E460024A24600BFA146002733
:100F1000B08900B100BF2F462C8A4CF6FF70044008
:100F2000F08804432C82AC894EF6F3100440B0885C
:100F300031890843718908430443AC81AC8A4FF678
:100F4000FF400440B0890443AC8201A8FFF7C6FD0E
:100F50001F48874202D1DDF810A001E0DDF80CA0A7
:100F6000A88900F4004040B10AEBCA0000EB0A1067
:100F700031684900B0FBF1F807E00AEBCA0000EB6A
:100F80000A1031688900B0FBF1F86420B8FBF0F07A
:100F900004012009642101FB1089A88900F40040A4
:100FA00040B1322000EBC900B0FBF1F000F00700C7
:100FB000044308E0322000EB09106421B0FBF1F09B
:100FC00000F00F0004432C8106B0BDE8F08700005C
:100FD0000038014001468888C0F3080070470000CF
:100FE0001CB500244FF4FA654FF4A060FFF74CFDE8
:100FF000FFF70AFBFFF780FEFFF7AAFB4FF6FF7033
:10100000FFF785FB4FF6FF70002352A20A210090E4
:101010000846FFF773FC4FF6FF70002351A21E2114
:1010200000900A20FFF76AFC4FF6FF7000234FA2E2
:10103000322100900A20FFF761FC4FF6FF70002379
:101040004DA2462100900A20FFF758FC4FF6FF7092
:1010500000234BA25A2100900A20FFF74FFC78E0B2
:10106000FFF7BAFA04464FF6FF701F210423224609
:10107000CDE900101E213C20FFF7FEFB424800781E
:10108000002830D14FF6FF70002340A24621009087
:101090003C20FFF733FCAC4212DD01213D48FFF755
:1010A00099FA02213B48FFF793FA4FF6FF704FF48D
:1010B000784339A2322100903C20FFF71FFC44E026
:1010C00001213448FFF784FA02213248FFF782FAFF
:1010D0004FF6FF704FF4FC6332A2322100903C20A7
:1010E000FFF70CFC31E02848007801282DD14FF69D
:1010F000FF7000232EA2462100903C20FFF7FEFB4C
:1011000002212448FFF766FA2B48007801280ED107
:1011100001212048FFF75EFA4FF6FF704FF4784345
:1011200026A2322100903C20FFF7E8FB0DE00121D0
:101130001848FFF74DFA4FF6FF704FF4FC6322A2F8
:10114000322100903C20FFF7D9FB4FF4FA70FFF7F3
:1011500060F985E7534D41525420504F4F4C205376
:10116000595300004C4556454C3A200053544154C5
:1011700055533A20000000004D4F44453A200000EE
:10118000524543563A200000000000204155544F7C
:1011900020200000000C014050554D50204F4E20A3
:1011A000000000004E4F524D414C20200000000036
:1011B0004D414E55414C00000100002050554D500E
:1011C000204F4E2A000000004E4F524D414C202A25
:1011D0000000000010B50246012000E050430B1E45
:1011E000A1F10104E1B2F9D110BD0000000000003E
:1011F00000000000000000000000000000080808D7
:10120000080808080000080800000000080808088E
:101210000000000000000000000000000000242486
:10122000247E24247E2424240000000000083E495B
:1012300048380F09493E080000000000002225251B
:101240001208042452522200000000000018242436
:1012500028102A4444443A0000000000000808080E
:101260000000000000000000000000000004081062
:1012700010101010100804000000000000100804F6
:101280000404040404081000000000000000082A00
:101290001C081C2A080000000000000000000808CC
:1012A000083E0808080000000000000000000000E0
:1012B000000000000000080810000000000000000E
:1012C000003E0000000000000000000000000000E0
:1012D00000000000000008080000000000020204F6
:1012E000040808101020200000000000001824420C
:1012F0004242424242241800000000000008182820
:101300000808080808083E0000000000001C2242EF
:101310004204081020427E0000000000001C22420F
:10132000020C020242221C000000000000040C1407
:101330002444447E04041E0000000000007E40405F
:10134000405C620202423C0000000000001C22409F
:10135000405C624242221C0000000000007E42020B
:10136000040408081010100000000000001C2242B5
:10137000421C224242221C0000000000001C2242AB
:1013800042463A0202443800000000000000000813
:10139000080000000008080000000000000000082D
:1013A0000800000000080810000000000002040807
:1013B00010201008040200000000000000000000DF
:1013C0003E00003E00000000000000000020100869
:1013D000040204081020000000000000001C22424B
:1013E000020408080008080000000000001C224A4F
:1013F000565252524E201E000000000000080814F1
:101400001422223E4141410000000000003E222201
:10141000223E222222223E0000000000001E224026
:101420004040404040221E0000000000003C2222BC
:101430002222222222223C0000000000003E202026
:10144000203E202020203E0000000000003E202002
:10145000203E20202020200000000000001E22400E
:1014600040404E4242221E00000000000041414127
:10147000417F41414141410000000000001C08083B
:101480000808080808081C00000000000007020205
:101490000202020242423C000000000000424448B6
:1014A00050605048444242000000000000202020CC
:1014B0002020202020203E00000000000041635535
:1014C000494141414141410000000000004161515A
:1014D000494543414141410000000000001C2241B8
:1014E0004141414141221C0000000000003E2222F7
:1014F000223E20202020200000000000001C22416D
:10150000414141414D261D0000000000003E2222C5
:10151000223E28242222220000000000001E224039
:10152000403E020202221E0000000000003F0808A8
:1015300008080808080808000000000000414141B0
:101540004141414141221C00000000000041414155
:1015500041222222141408000000000000414141F1
:1015600041495555634141000000000000412214EB
:101570000808081422414100000000000041221424
:10158000080808080808080000000000007F02049E
:101590000810204040407F0000000000BC150008FB
:1015A00000000020180000006C010008D41500089D
:1015B00018000020600600008801000800000000FC
:1015C00000000102030401020304060708090204E3
:0415D0000608000009
:0400000508000131BD
:00000001FF
