:020000040800F2
:1000000060060020B1010008B9010008BB0100082A
:10001000BD010008BF010008C10100080000000088
:10002000000000000000000000000000C301000804
:10003000C501000800000000C7010008C901000850
:10004000CB010008CB010008CB010008CB01000860
:10005000CB010008CB010008CB010008CB01000850
:10006000CB010008CB010008CB010008CB01000840
:10007000CB010008CB010008CB010008CB01000830
:10008000CB010008CB010008CB010008CB01000820
:10009000CB010008CB010008CB010008CB01000810
:1000A000CB010008CB010008CB010008CB01000800
:1000B000CB010008CB010008CB010008CB010008F0
:1000C000CB010008CB010008CB010008CB010008E0
:1000D000CB010008CB010008CB010008CB010008D0
:1000E000CB010008CB010008CB010008CB010008C0
:1000F000CB010008CB010008CB010008CB010008B0
:10010000CB010008CB010008CB010008CB0100089F
:10011000CB010008CB010008CB010008CB0100088F
:10012000CB010008CB010008CB010008CB0100087F
:1001300000F002F800F02CF80AA090E8000C8244CD
:100140008344AAF10107DA4501D100F021F8AFF2AA
:10015000090EBAE80F0013F0010F18BFFB1A43F0A5
:1001600001031847440E0000540E00000023002431
:1001700000250026103A28BF78C1FBD8520728BFB7
:1001800030C148BF0B6070471FB51FBD10B510BD13
:1001900000F031F81146FFF7F7FF00F09FFC00F088
:1001A0004FF803B4FFF7F2FF03BC00F057F800006C
:1001B0000948804709480047FEE7FEE7FEE7FEE7FB
:1001C000FEE7FEE7FEE7FEE7FEE7FEE70448054937
:1001D000054A064B704700007D0A000831010008FF
:1001E0006000002060060020600200206002002005
:1001F000704770477047754600F02CF8AE46050012
:100200006946534620F00700854618B020B5FFF731
:10021000DDFFBDE820404FF000064FF000074FF033
:1002200000084FF0000B21F00701AC46ACE8C00914
:10023000ACE8C009ACE8C009ACE8C0098D4670471D
:1002400010B50446AFF300802046BDE81040FFF72C
:10025000A8BF000000487047000000200149182096
:10026000ABBEFEE726000200704721B1826842F073
:100270000102826003E0826822F00102826070471E
:10028000014600208A6802F004020AB1012000E061
:10029000002070470146C86C80B2704702460020BB
:1002A00013680B400BB1012000E0002070470146AD
:1002B00000208A6802F008020AB1012000E0002054
:1002C0007047000030B502460020002350680F4CF4
:1002D00020400D790C6844EA052420435060906862
:1002E0000B4C2040D1E902542C434D7944EA45049B
:1002F00020439060D06A20F470000C7C641EE4B24D
:10030000234340EA0350D06230BD0000FFFEF0FFFF
:10031000FDF7F1FFF0B504460D4600200021092D40
:1003200011DDE068A5F10A0606EB4607072606FA86
:1003300007F18843A5F10A0606EB460603FA06F123
:100340000843E0600CE0206905EB4507072606FA44
:1003500007F1884305EB450603FA06F108432061DF
:10036000072A0FDA606B561E06EB86071F2606FA71
:1003700007F18843561E06EB860605FA06F1084388
:10038000606322E00D2A0FDA206BD61F06EB86078A
:100390001F2606FA07F18843D61F06EB860605FAE4
:1003A00006F10843206310E0E06AA2F10D0606EBB7
:1003B00086071F2606FA07F18843A2F10D0606EB11
:1003C000860605FA06F10843E062F0BD816841F057
:1003D00008018160704721B1826842F4A002826006
:1003E00003E0826822F4A00282607047816841F0D5
:1003F000040181607047002106E0002200E0521CE9
:10040000B2F5FA5FFBD3491C8142F6D370472DE960
:10041000F04102460025002600200023002400278A
:1004200091F803C00CF00F0591F803C00CF0100C0C
:10043000BCF1000F03D091F802C04CEA050591F819
:1004400000C0BCF1000F31D0146800202BE04FF049
:10045000010C0CFA00F3B1F800C00CEA03069E424E
:1004600020D183004FF00F0C0CFA03F7BC4305FAC0
:1004700003FC4CEA040491F803C0BCF1280F06D138
:100480004FF0010C0CFA00FCC2F814C00AE091F81D
:1004900003C0BCF1480F05D14FF0010C0CFA00FC71
:1004A000C2F810C0401C0828D1D31460B1F800C0B5
:1004B000BCF1FF0F34DD546800202EE000F1080C81
:1004C0004FF0010808FA0CF3B1F800C00CEA03067B
:1004D0009E4221D183004FF00F0C0CFA03F7BC436E
:1004E00005FA03FC4CEA040491F803C0BCF1280FA0
:1004F00005D100F1080C08FA0CF8C2F8148091F844
:1005000003C0BCF1480F07D100F1080C4FF00108FF
:1005100008FA0CF8C2F81080401C0828CED35460AA
:10052000BDE8F081416170470161704710B5052356
:10053000012200210848FFF7EDFE01210648FFF7E0
:100540004AFF00BF02210448FFF7A8FE0028F9D0A7
:100550000148FFF79FFE10BD0024014000B587B0A1
:1005600001214FF4037000F005FA0120ADF81800E6
:1005700000208DF81B0006A92048FFF748FF032044
:10058000ADF8180010208DF81B0003208DF81A001C
:1005900006A91B48FFF73BFF01211948FFF7C2FFDF
:1005A00002211748FFF7C0FF002001908DF80800D6
:1005B0008DF809004FF46020039000200490012082
:1005C0008DF8140001A90F48FFF77CFE01210D48AA
:1005D000FFF74BFE0B48FFF7F9FE00BF0948FFF796
:1005E00066FE0028FAD10748FFF700FF00BF054864
:1005F000FFF746FE0028FAD107B000BD0008014011
:10060000000C0140002401402DE9F04104460D4654
:1006100016461F462A2000F073F9002000F058F912
:10062000A11CC8B200F054F9002000F051F9B11C2F
:10063000C8B200F04DF92B2000F062F9002000F064
:1006400047F9691CC8B200F043F9002000F040F9F6
:10065000791CC8B200F03CF92C2000F051F9BDE83B
:10066000F08170B506467F231A4600210846FFF741
:10067000CBFF00240AE0002504E0304600F00EF92C
:10068000681C85B2802DF8DB601C84B2802CF2DB04
:1006900070BD01B500BF0098411E00910028FAD13D
:1006A00008BD000008B501210C2000F063F9A0206E
:1006B000ADF8000010208DF8030003208DF8020033
:1006C00069462048FFF7A3FE4FF4E040ADF8000074
:1006D00069461D48FFF79BFE4FF480511A48FFF70B
:1006E00021FF1A48FFF7D5FF4FF480511648FFF756
:1006F0001BFF1648FFF7CDFF112000F001F9144849
:10070000FFF7C7FFB12000F0FBF8052000F0E0F88C
:100710003C2000F0DDF83C2000F0DAF8362000F054
:10072000EFF8082000F0D4F83A2000F0E9F80520AE
:1007300000F0CEF8202000F0E3F8292000F0E0F8E7
:1007400008BD000000080140000C014080841E002C
:10075000804F12002DE9F05F06460F46144698467A
:10076000DDF828B0A4F12000C4B207F10F0083B275
:10077000F01D82B239463046FFF746FF00251EE0E5
:10078000114800EB041010F805904FF0000A11E03A
:1007900009F0800018B1404600F080F802E05846A9
:1007A00000F07CF84FEA49604FEA10690AF1010055
:1007B00000F0FF0ABAF1080FEADB681C85B2102DC1
:1007C000DEDBBDE8F09F0000F60B00082DE9F84FD6
:1007D00006468A4690461D46DDF82C904FF0000BE9
:1007E000002431E0281B401EC1B20A2000F0F8F9B5
:1007F000B8FBF0F00A21B0FBF1F201FB1207BBF1EC
:10080000000F11D1681EA0420EDD5FB9082101FB67
:10081000046188B2CDF80090202251460A9BFFF770
:1008200099FF0FE04FF0010B07F13001CAB2082128
:1008300001FB046188B2CDF8009051460A9BFFF796
:1008400089FF00BF601CC4B2AC42CBDBBDE8F88FAF
:100850002DE9F84305460E4614469846089F18E0D1
:10086000782D03DD002506F1100086B2702E05DD1F
:100870000020054606463846FFF7F3FE009722782B
:10088000434631462846FFF765FF05F1080085B26B
:10089000641C20780028E3D1BDE8F88310B5044635
:1008A0004FF480410948FFF73DFE4FF400510748DF
:1008B000FFF73AFE201200F03BF8E0B200F038F803
:1008C0004FF480410148FFF72FFE10BD000C01409E
:1008D00010B504464FF480410848FFF723FE4FF45B
:1008E00000510648FFF720FE204600F021F84FF4A3
:1008F00080410248FFF718FE10BD0000000C0140C7
:1009000010B504464FF480410848FFF70BFE4FF442
:1009100000510648FFF706FE204600F009F84FF4A4
:1009200080410248FFF700FE10BD0000000C0140AE
:1009300070B50446002517E020210D48FFF7F2FDB1
:1009400004F0800020B180210948FFF7EDFD03E0AD
:1009500080210748FFF7E6FD20210548FFF7E4FD69
:100960006006040E681CC5B2082DE5DB70BD0000F2
:100970000008014029B1064A92690243044B9A617A
:1009800004E0034A92698243014B9A617047000078
:100990000010024010B500F001F810BD0CB50020A9
:1009A000019000903348006840F48030314908607D
:1009B00000BF3048006800F4003000900198401CEF
:1009C0000190009818B90198B0F5A06FF1D12948AD
:1009D000006800F4003010B10120009001E0002018
:1009E00000900098012843D12348006840F010008F
:1009F000214908600846006820F0030008600846A6
:100A0000006840F0020008601A48406819494860D0
:100A10000846406848600846406840F48060486086
:100A20000846406820F47C1048600846406840F45E
:100A3000E81048600846006840F08070086000BF19
:100A40000C48006800F000700028F9D009484068A0
:100A500020F00300074948600846406840F0020063
:100A6000486000BF0348406800F00C000828F9D136
:100A70000CBD0000001002400020024010B51348D9
:100A8000006840F0010011490860084640681049BC
:100A900008400E494860084600680E4908400B4966
:100AA00008600846006820F4802008600846406816
:100AB00020F4FE0048604FF41F008860FFF76AFFD3
:100AC0004FF000600449086010BD000000100240B3
:100AD0000000FFF8FFFFF6FE08ED00E01CB5002463
:100AE0004FF4FA65FFF73AFDFFF7DCFD4FF6FF70B4
:100AF000FFF7B7FD4FF6FF70002329A20A210090EF
:100B00000846FFF7A5FE4FF6FF70002328A21E211E
:100B100000900A20FFF79CFE4FF6FF70002326A2EC
:100B2000322100900A20FFF793FE38E0FFF7FEFC29
:100B300004464FF6FF701F2104232246CDE9001022
:100B40001E213C20FFF742FEAC4212DD01211D4870
:100B5000FFF7EAFC02211B48FFF7E4FC4FF6FF70A9
:100B60004FF4784318A2322100903C20FFF770FE2A
:100B700011E001211348FFF7D5FC02211148FFF7CE
:100B8000D3FC4FF6FF704FF4FC6312A232210090A9
:100B90003C20FFF75DFE4FF4FA70FFF72CFCC5E731
:100BA000534D41525420504F4F4C20535953000045
:100BB0004C4556454C3A20005354415455533A2025
:100BC00000000000000C014050554D50204F4E20B9
:100BD000000000004E4F524D414C2020000000000C
:100BE00010B50246012000E050430B1EA1F10104A4
:100BF000E1B2F9D110BD00000000000000000000CB
:100C000000000000000000000008080808080808AC
:100C100000000808000000000808080800000000A4
:100C2000000000000000000000002424247E242492
:100C30007E2424240000000000083E4948380F09A3
:100C4000493E080000000000002225251208042467
:100C500052522200000000000018242428102A44C8
:100C600044443A00000000000008080800000000AA
:100C70000000000000000000000408101010101018
:100C8000100804000000000000100804040404041C
:100C900004081000000000000000082A1C081C2A9C
:100CA000080000000000000000000808083E0808D6
:100CB000080000000000000000000000000000002C
:100CC000000008081000000000000000003E0000C6
:100CD0000000000000000000000000000000000014
:100CE00000000808000000000002020404080810C8
:100CF000102020000000000000182442424242421E
:100D000042241800000000000008182808080808FD
:100D100008083E0000000000001C224242040810A7
:100D200020427E0000000000001C2242020C020251
:100D300042221C000000000000040C142444447EE5
:100D400004041E0000000000007E4040405C62027F
:100D500002423C0000000000001C2240405C624255
:100D600042221C0000000000007E42020404080829
:100D70001010100000000000001C2242421C224201
:100D800042221C0000000000001C224242463A029F
:100D900002443800000000000000000808000000C5
:100DA0000008080000000000000000080800000023
:100DB00000080810000000000002040810201008BD
:100DC0000402000000000000000000003E00003EA1
:100DD00000000000000000000020100804020408C9
:100DE0001020000000000000001C2242020408083D
:100DF0000008080000000000001C224A565252520F
:100E00004E201E0000000000000808141422223E9C
:100E10004141410000000000003E2222223E2222E9
:100E200022223E0000000000001E224040404040C0
:100E300040221E0000000000003C2222222222222A
:100E400022223C0000000000003E2020203E202006
:100E500020203E0000000000003E2020203E2020F8
:100E60002020200000000000001E224040404E4292
:100E700042221E000000000000414141417F4141EB
:100E80004141410000000000001C08080808080853
:100E900008081C0000000000000702020202020213
:100EA00042423C000000000000424448506050486C
:100EB000444242000000000000202020202020208A
:100EC00020203E000000000000416355494141419F
:100ED000414141000000000000416151494543414A
:100EE0004141410000000000001C224141414141BC
:100EF00041221C0000000000003E2222223E202051
:100F00002020200000000000001C224141414141FE
:100F10004D261D0000000000003E2222223E282413
:100F20002222220000000000001E2240403E020259
:100F300002221E0000000000003F08080808080800
:100F400008080800000000000041414141414141C2
:100F500041221C00000000000041414141222222A8
:100F6000141408000000000000414141414955555A
:100F700063414100000000000041221408080814E9
:100F80002241410000000000004122140808080826
:100F90000808080000000000007F0204081020403C
:100FA00040407F0000000000B80F00080000002053
:080FB000600600006C0100085E
:0400000508000131BD
:00000001FF
